:060000000A128A11FC2F18
:100EAC007C30831603139200080083120313121470
:100EBC009210121508008312031397151715831639
:100ECC00031307110800043071020030031970027B
:100EDC000318712F722F932F70080139F200F20E44
:100EEC008312031317087206EF3972069700700805
:100EFC000239F200F20EF20D17087206DF39720693
:100F0C0097007108F3007008F2000310F30CF20C58
:100F1C000310F30CF20C7208950008000A128A11E7
:100F2C0061270A128A110A128A1156270A128A118B
:100F3C000A128A115B270A128A11F601F701BE2FD9
:100F4C007708F1007608F0000A128A1169270A1254
:100F5C008A110130F6070318F70A0030F70703303F
:100F6C00F5009730F400F40BB92FF50BB92FBE2F09
:100F7C0001307702F43003197602031CC62FC72FF9
:100F8C00A62F8230F500DD30F400F40BCB2FF50BDF
:100F9C00CB2FD02FE92F7708F1007608F0000A123A
:100FAC008A1169270A128A110130F6020030031CDB
:100FBC00F703F7020330F5009730F400F40BE42F3D
:100FCC00F50BE42FE92F76087704031DEE2FEF2F96
:100FDC00D12F8230F500DD30F400F40BF32FF50B3C
:100FEC00F32FF82FA32F0A128A11002883010A125B
:040FFC008A11942F93
:02400E00723FFF
:00000001FF
