:060000000A128A110C280F
:10000800FE00030EF0000A08F1000A128A112828DF
:100018000A128A110F28F20183010A128A1139285B
:1000280019308316031399001815831203139817B0
:10003800831603131812071787178C160B178B17BD
:100048008312031318160800831203138C1E2D281D
:100058002E2832281A08F2007208880071088A00CF
:10006800700E8300FE0E7E0E09000A128A111420FB
:100078000A128A110A128A1147200A128A11432881
:100088000A128A110C28831603138801831203139A
:0400980088010800D3
:02400E00723FFF
:00000001FF
