:060000000A128A11FC2F18
:100E0E00831203131715971508007C3083160313EE
:100E1E0092008312031392101214121508001F3041
:100E2E00831603138600071188018312031308101B
:100E3E00881408000430710201300319700203187F
:100E4E00292F2A2F4B2F70080139F200F20E831230
:100E5E00031317087206EF397206970070080239ED
:100E6E00F200F20EF20D17087206DF3972069700C5
:100E7E007108F3007008F2000310F30CF20C03106B
:100E8E00F30CF20C7208950008000A128A1116274C
:100E9E000A128A110A128A1107270A128A110A12D5
:100EAE008A110C270A128A110030F000F1000A1282
:100EBE008A1121270A128A1183120313061C682F26
:100ECE00692F902F0310081C031403186F2F732F14
:100EDE00831203130814762F8312031308100310C2
:100EEE00881C031403187C2F802F8312031388147D
:100EFE00832F8312031388100330F6008A30F50017
:100F0E005530F400F40B892FF50B892FF60B892F32
:100F1E00902F83120313861C952F962FA72F003028
:100F2E00F000F1000A128A1121270A128A1182306A
:100F3E00F500DD30F400F40BA22FF50BA22FA72F36
:100F4E0083120313061DAC2FAD2FBF2FFA30F00006
:100F5E000030F1000A128A1121270A128A118230FA
:100F6E00F500DD30F400F40BBA2FF50BBA2FBF2FBE
:100F7E0083120313861DC42FC52FD72F7730F00091
:100F8E000130F1000A128A1121270A128A118230C9
:100F9E00F500DD30F400F40BD22FF50BD22FD72F46
:100FAE0083120313061EDC2FDD2FEF2FF430F0001B
:100FBE000130F1000A128A1121270A128A11823099
:100FCE00F500DD30F400F40BEA2FF50BEA2FEF2FCE
:100FDE000D30F500FB30F400F40BF32FF50BF32F6F
:100FEE00F82F632F0A128A11002883010A128A1120
:020FFE004C2F76
:02400E00723FFF
:00000001FF
