:060000000A128A110C280F
:10000800FE00030EF0000A08F1000A128A113E28C9
:100018000A128A110F2883010A128A1113288316DB
:1000280003138710071101170B168B17831203137D
:1000380007150630F4001330F300AD30F200F20B70
:100048002328F30B2328F40B23282A2883120313CD
:1000580007110630F4001330F300AD30F200F20B54
:100068003328F30B3328F40B33283A281A280A12BA
:100078008A110C288B1C412842285228031083120D
:100088000313871C031403184A284E2883120313EA
:10009800871451288312031387108B1071088A0064
:0A00A800700E8300FE0E7E0E0900AC
:02400E00723FFF
:00000001FF
