:060000000A128A110C280F
:10000800FE00030EF0000A08F1000A128A111428F3
:100018000A128A110F28F20183010A128A1138285C
:10002800831203130C1C19281A2831280130F207EF
:100038000F307206031D2128222830280310061CC1
:100048000314031828282C288312031306142F28B6
:10005800831203130610F2010C1071088A00700E47
:100068008300FE0E7E0E090083160313061083120A
:10007800031306108E018F019010101290120614AF
:100088001014831603130C14831203130C100B178C
:0A0098008B174D280A128A110C285C
:02400E00723FFF
:00000001FF
