:060000000A128A110C280F
:10000800FE00030EF0000A08F1000A168A15E12E18
:100018000A128A110F28FA01FB0183120313EF0158
:100028008313DA308400ED300A168A15AA240A12DE
:100038008A11831790308400B0300A168A15AA24D2
:100048000A128A111030840060300A168A15AA2410
:100058000A128A1183010A168A11DA283F30831698
:100068000313CB008030CA000030C9000030C8003C
:10007800AF01B0014508F5004408F4004308F30057
:100088004208F2000030F9000030F8000030F700B4
:100098000030F6000A168A1139200A128A1103184C
:1000A80056285728682A6828831603133608CB0071
:1000B8003508CA003408C9003308C8000130AF0742
:1000C8000318B00A0030B007413083120313A900A7
:1000D8002030A8000030A7000030A60083160313C4
:1000E8004B0883120313AD00831603134A088312C7
:1000F8000313AC0083160313490883120313AB00E0
:1001080083160313480883120313AA000A128A15D8
:10011800BE240A128A1183120313290883160313B3
:10012800B60083120313280883160313B50083123D
:100138000313270883160313B40083120313260836
:1001480083160313B300420883120313D3008316E4
:100158000313430883120313D400831603134408BC
:1001680083120313D5008316031345088312031360
:10017800D60083160313330883120313D30283169E
:1001880003133408031C340FCA28CD288312031321
:10019800D402831603133508031C350FD428D72837
:1001A80083120313D502831603133608031C360F74
:1001B800DE28E12883120313D60283160313831261
:1001C80003135608F5005508F4005408F3005308C3
:1001D800F2000A168A15CB240A128A11F51B042983
:1001E8007508031D05297408031D05297308031DD7
:1001F800052902307202031D0129031C042905295F
:10020800582883160313360883120313C300831672
:100218000313350883120313C2008316031334082B
:1002280083120313C10083160313330883120313C5
:10023800C00083160313450883120313C7008316EF
:100248000313440883120313C600831603134308D9
:1002580083120313C5008316031342088312031382
:10026800C4000A168A113F240A128A11031C3D2968
:100278003E29582883160313420883120313D30018
:1002880083160313430883120313D400831603133E
:10029800440883120313D5008316031345088312F9
:1002A8000313D60083160313480883120313D302DB
:1002B800831603134908031C490F6329662983120F
:1002C8000313D402831603134A08031C4A0F6D292B
:1002D800702983120313D502831603134B08031CDA
:1002E8004B0F77297A2983120313D6028316031337
:1002F800831203135608F5005508F4005408F30058
:100308005308F2000A168A15CB240A128A11F51B23
:100318009E297508031D9D297408031D9D297308CE
:10032800031D9D2902307202031D9A2903189D2975
:100338009E292F2A831603134B08C5004A08C400B8
:100348004908C3004808C200682A4130F500203037
:10035800F4000030F3000030F200831603134B085A
:10036800F9004A08F8004908F7004808F6000A1298
:100378008A159E200A128A11750883160313CB006A
:100388007408CA007308C9007208C800FF30AF07B4
:100398000318B00AFF30B007420883120313D300D2
:1003A80083160313430883120313D400831603131D
:1003B800440883120313D5008316031345088312D8
:1003C8000313D60083160313480883120313D302BA
:1003D800831603134908031C490FF329F6298312CE
:1003E8000313D402831603134A08031C4A0FFD297A
:1003F800002A83120313D502831603134B08031C28
:100408004B0F072A0A2A83120313D60283160313F3
:10041800831203135608F5005508F4005408F30036
:100428005308F2000A168A15CB240A128A11F51B02
:100438002E2A7508031D2D2A7408031D2D2A7308FA
:10044800031D2D2A02307202031D2A2A03182D2AA1
:100458002E2A2F2A9E298316031345088312031375
:10046800C30083160313440883120313C2008316C0
:100478000313430883120313C100831603134208AE
:1004880083120313C000831603134B08831203134C
:10049800C700831603134A0883120313C600831682
:1004A8000313490883120313C5008316031348086E
:1004B80083120313C4000A168A113F240A128A11F0
:1004C800031C672A682AA929831203135208831672
:1004D8000313A9002908AA00E91B732A742A792A98
:1004E8006908A3006808A2007D2A0630A20000302F
:1004F800A3002308AE002208AD000130AD070318A1
:10050800AE0A0030AE0766302A06031D8C2A8D2AF3
:10051800A72AB01F902A912A9B2A3F30CB0080300F
:10052800CA000030C9000030C800AF01B001673010
:1005380029060319A02AA12AA72A2F08AD070318FC
:10054800AE0A3008AE07B701B8014508BC00440838
:10055800BB004308BA004208B9004B08B6004A0875
:10056800B5004908B4004808B300A22B831603134A
:100578004B08F5004A08F4004908F3004808F2005F
:100588003C08F9003B08F8003A08F7003908F6007B
:100598000A128A159E200A128A11750883120313FB
:1005A800B5007408B4007308B3007208B2000A16E4
:1005B8008A11F1260A128A11831203133508831649
:1005C8000313C00083120313340883160313BF00F8
:1005D80083120313330883160313BE008312031315
:1005E800320883160313BD004008F5003F08F400E5
:1005F8003E08F3003D08F2000A168A1129230A1260
:100608008A11730883160313AC007208AB004B08F9
:1006180083120313AD00831603134A0883120313CE
:10062800AC0083160313490883120313AB00831627
:100638000313480883120313AA0083160313400800
:1006480083120313A900831603133F0883120313AD
:10065800A800831603133E0883120313A70083160A
:1006680003133D0883120313A6000A128A15BE2439
:100678000A128A11831203132908C3002808C2002A
:100688002708C1002608C000831603133C088312FC
:100698000313C700831603133B0883120313C60012
:1006A800831603133A0883120313C5008316031332
:1006B800390883120313C4000A168A155B250A1227
:1006C8008A1183120313430883160313BC00831291
:1006D8000313420883160313BB0083120313410854
:1006E80083160313BA0083120313400883160313F7
:1006F800B9004130F5002030F4000030F30000303C
:10070800F2004B08F9004A08F8004908F7004808C1
:10071800F6000A128A159E200A128A117508831695
:100728000313CB007408CA007308C9007208C80014
:100738000130B7070318B80A0030B8073808803AFC
:1007480083120313D300831603132E08803A8312EF
:1007580003135302031DB42B831603132D0837020A
:10076800031CB72BB82BBA2A403083120313A900F5
:10077800A030A8000030A7000030A600831603139D
:100788004B0883120313AD00831603134A08831220
:100798000313AC0083160313490883120313AB0039
:1007A80083160313480883120313AA000A128A1532
:1007B800BE240A128A11831203132908831603130D
:1007C800C00083120313280883160313BF00831283
:1007D8000313270883160313BE0083120313260886
:1007E80083160313BD003C0883120313C30083164A
:1007F80003133B0883120313C200831603133A083A
:1008080083120313C10083160313390883120313D9
:10081800C00083160313400883120313C70083160E
:1008280003133F0883120313C600831603133E08FD
:1008380083120313C500831603133D0883120313A1
:10084800C4000A168A113F240A128A1103182D2C93
:100858002E2C392C003083160313C0000030BF0043
:100868000030BE000030BD00622C831603133C0824
:10087800F5003B08F4003A08F3003908F200400894
:10088800F9003F08F8003E08F7003D08F6000A1690
:100898008A1139200A128A11031C532C542C622CF9
:1008A800831603132B18592C5A2C622C0030C000C5
:1008B8000030BF000030BE000030BD0083160313B7
:1008C8004008F5003F08F4003E08F3003D08F20038
:1008D8004508F9004408F8004308F7004208F60004
:1008E8000A128A156E220A128A11750883160313D2
:1008F800BC007408BB007308BA007208B9003C0851
:1009080083120313C300831603133B0883120313D4
:10091800C200831603133A0883120313C100831617
:100928000313390883120313C0004130A900203093
:10093800A8000030A7000030A6008316031336086D
:1009480083120313AD0083160313350883120313B0
:10095800AC0083160313340883120313AB00831609
:100968000313330883120313AA000A128A15BE243C
:100978000A128A11831203132908C7002808C6001F
:100988002708C5002608C4000A168A113F240A123F
:100998008A11031CD02CD12C242D0130831603136B
:1009A800AF070318B00A0030B007413083120313B1
:1009B800A9002030A8000030A7000030A600831648
:1009C8000313360883120313AD0083160313350887
:1009D80083120313AC008316031334088312031322
:1009E800AB0083160313330883120313AA000A12F9
:1009F8008A15BE240A128A11831203132908831642
:100A08000313B60083120313280883160313B500D3
:100A180083120313270883160313B40083120313E6
:100A2800260883160313B30066302A06031D1D2DFE
:100A38001E2D242D0130AD070318AE0A0030AE0775
:100A4800831603133608CB003508CA003408C900DA
:100A58003308C8003008A1002F08A000A801A4018D
:100A6800A501B701B801982E831603134B08F500AA
:100A78004A08F4004908F3004808F2003C08F90065
:100A88003B08F8003A08F7003908F6000A128A15F8
:100A98009E200A128A11750883120313B500740880
:100AA800B4007308B3007208B2000A168A11F1265E
:100AB8000A128A1183120313350883160313C00020
:100AC80083120313340883160313BF00831203131E
:100AD800330883160313BE008312031332088316E8
:100AE8000313BD004008F5003F08F4003E08F3007A
:100AF8003D08F2000A168A1129230A128A1173087E
:100B0800803AFF0080307F02031D8C2D0A3072026C
:100B180003188F2D902DA62D831603134008F5007A
:100B28003F08F4003E08F3003D08F2000A168A1157
:100B380029230A128A11730883160313AC0072085A
:100B4800AB00AC2D093083160313AB000030AC00AA
:100B58002808031DB02DB12DE22DA11FB42DB52DF0
:100B6800E22D4608103E84002E30831780000130A5
:100B7800C6070318C70A0030C707FF30B1070318B4
:100B8800B20AFF30B2070130A800E22D4608103E35
:100B980084003030831780000130C6070318C70A65
:100BA8000030C707FF30B1070318B20AFF30B20799
:100BB800FF30A4070318A50AFF30A5072408250459
:100BC800031DE72DE82DCA2D4608103E84002B088A
:100BD800303E831780000130C6070318C70A00306B
:100BE800C707FF30B1070318B20AFF30B2074B0836
:100BF80083120313AD00831603134A0883120313E9
:100C0800AC0083160313490883120313AB00831641
:100C18000313480883120313AA008316031340081A
:100C280083120313A900831603133F0883120313C7
:100C3800A800831603133E0883120313A700831624
:100C480003133D0883120313A6000A128A15BE2453
:100C58000A128A11831203132908C3002808C20044
:100C68002708C1002608C000831603133C08831216
:100C78000313C700831603133B0883120313C6002C
:100C8800831603133A0883120313C500831603134C
:100C9800390883120313C4000A168A155B250A1241
:100CA8008A1183120313430883160313BC008312AB
:100CB8000313420883160313BB008312031341086E
:100CC80083160313BA008312031340088316031311
:100CD800B9004130F5002030F4000030F300003056
:100CE800F2004B08F9004A08F8004908F7004808DC
:100CF800F6000A128A159E200A128A1175088316B0
:100D08000313CB007408CA007308C9007208C8002E
:100D1800FF30A0070318A10AFF30A1070130B70769
:100D28000318B80A0030B8073808803A831203134A
:100D3800D300831603132E08803A83120313530239
:100D4800031DAA2E831603132D0837020318AD2E90
:100D5800AE2EBD2E831603134708803AFF0080305D
:100D68007F02031DB92E4B304602031CBC2EBD2E3C
:100D7800382D4F3083160313B7000030B8003708FA
:100D8800103E840083178001103083120313D300B0
:100D980083160313460883120313D302831603131F
:100DA8003708831203135307F2001030F300831639
:100DB80003134708F5004608F4000A168A15182593
:100DC8000A128A118316031346083702C600470819
:100DD800031C470A3802C7004108031DF42EF62EEB
:100DE8000130F72E003083120313D300D4015308C7
:100DF80083160313B70083120313540883160313CF
:100E0800B80041080319092F0A2F162FFF30C6070B
:100E18000318C70AFF30C7074608103E8400410878
:100E2800831780003708B1023808031CB203B202E6
:100E3800831203134C08AE004D08AF00831603134A
:100E48004608103E83120313B000831603133208BA
:100E580083120313B200831603133108831203139A
:100E6800B1000A168A1521260A128A11080083126F
:100E78000313A00020080319422F432F572FF51FF3
:100E8800462F472F572F7209A2007309A300740930
:100E9800A4007509A500A20A0319A30A0319A40A44
:100EA8000319A50A5F2F7508A5007408A400730824
:100EB800A3007208A2007508740473047204031D69
:100EC800662F672F702F0030F5000030F4000030D7
:100ED800F3000030F200F02F9630A1007E2F013091
:100EE800A10701300310A50CA40CA30CA20CFF3E13
:100EF800031D762FFE302505031D832F842F732FA6
:100F08009E2F0130A1070130A207003003180130DD
:100F1800A307003003180130A4070030031801307C
:100F2800A50701300310A50CA40CA30CA20CFF3ECE
:100F3800031D962FFF302505031DA32FA42F852FF2
:100F4800B02F0130A1020130F6000310A20DA30D4D
:100F5800A40DA50DF60BA92FA41BB32FB42FBA2FE0
:100F6800023021020318B92FBA2FA52F2118BD2F3F
:100F7800BE2FC62FFF30A205FF30A3057F30A40582
:100F8800FF30A5050310A10C2108F600F701F801B0
:100F9800F90118300310F60DF70DF80DF90DFF3EA5
:100FA800031DCE2F7608A2047708A3047808A404AA
:100FB8007908A50420080319E22FE32FE82FF51F6D
:100FC800E62FE72FE82FA5172508F5002408F400D9
:100FD8002308F3002208F200080000300A168A15D8
:100FE800F9240A128A1101300A168A15F9240A12FC
:060FF8008A110800080048
:1010020083120313921412104430910083160313B7
:101012008C14831203138C100B178B1712150800F4
:1010220083160317170883120313AB0083160317E3
:10103200160883120313AA008316031715088312D6
:101042000313A90083160317140883120313A800BD
:101052007508AB007408AA007308A9007208A800FA
:101062002808A0002908A1002A08A2002B08A30032
:1010720017300310A30CA20CA10CA00CFF3E031D01
:101082003A28FF302005A60000302105A7002608D7
:101092002704031D4D284E2871282808A00029087E
:1010A200A1002A08A2002B08A30001300310A00D02
:1010B200A10DA20DA30DFF3E031D572823082204F4
:1010C20021042004031D662867286C280230F200E0
:1010D2000030F3009D280330F2000030F3009D2819
:1010E200260A2704031D7628772899282808A000B5
:1010F2002908A1002A08A2002B08A3000930031026
:10110200A00DA10DA20DA30DFF3E031D80282308F3
:1011120022042104200403198F28912801309228E7
:101122000030A400A5012408F2002508F3009D2840
:101132000430F2000030F300080079088312031330
:10114200A9008030A9057908A0002007B000F81F87
:10115200AB28AC28AD28301430080319B128B228C6
:10116200C228300A031DB628B728BF280030F9006C
:101172000030F8000030F7000030F600F817F901EF
:10118200CA280030F9000030F8000030F7000030C3
:10119200F60075088039A9067508A0002007B1007D
:1011A200F41FD428D528D628311431080319DA2897
:1011B200DB28EB28310A031DDF28E028E82800306D
:1011C200F5000030F4000030F3000030F200F417B4
:1011D200F501F3280030F5000030F4000030F30090
:1011E2000030F2007508740473047204031DFA28B7
:1011F200FB2812290030F9000030F8000030F70017
:101202000030F6008030F8047F30F9042908F90430
:101212007908F5007808F4007708F3007608F20000
:101222006D2A3008031D1629172920290030F500E0
:101232000030F4000030F3000030F2006D2A300874
:10124200A000A1012108A30031082002A200031C72
:10125200A30322087F3EAA0023080318013E003E92
:10126200AB007908A8007808A7007708A6007608DE
:10127200A5000030F9000030F8000030F70000301F
:10128200F6000030AF000030AE000030AD0000309C
:10129200AC00B1019A293108031950295129712949
:1012A2000130A0000310A50DA60DA70DA80DA00BDF
:1012B20053290130A0000310F60DF70DF80DF90DBA
:1012C200A00B5C29AF1F66296729682976140130B3
:1012D200A0000310AC0DAD0DAE0DAF0DA00B6A2931
:1012E20075082802031D7F2974082702031D7F2920
:1012F20073082602031D7F2972082502031C822916
:10130200832998292F177208A5027308031C730FEB
:101312008B298C29A6027408031C740F9129922927
:10132200A7027508031C750F97299829A802013096
:10133200B1071A303102031C9F29A0294C29280821
:101342002704260425040319A729A829C7292C1430
:10135200C7290130A0000310F60DF70DF80DF90DA5
:10136200A00BAC29AF1FB629B729B82976140130D2
:10137200A0000310AC0DAD0DAE0DAF0DA00BBA2940
:10138200FF30AA070318AB0AFF30AB07F81FCA29C0
:10139200CB29AA29B101AF1FCF29D029EC29FF30CF
:1013A2002C05A000FF302D05A100FF302E05A20064
:1013B2007F302F05A30023082204210420040319EF
:1013C200E329E429E7290130B100EC29761CEA2956
:1013D200EB29EC29E42931080319F029F129222A01
:1013E2000130F607003003180130F7070030031808
:1013F2000130F807003003180130F907791C022A7E
:10140200032A222A7608A0007708A1007808A20001
:101412007908A3000130A400230DA30CA20CA10C97
:10142200A00CA40B0D2A2308F9002208F8002108B9
:10143200F7002008F6000130AA070318AB0A0030B3
:10144200AB072B08803AFF0080307F02031D2B2A56
:10145200FF302A02031C2E2A2F2A3D2AFF30831234
:101462000313AA000030AB000030F9000030F8008E
:101472000030F7000030F600831203132B08803A85
:10148200FF0080307F02031D482A01302A02031820
:101492004B2A4C2A592A83120313AA01AB010030AA
:1014A200F9000030F8000030F7000030F600A90122
:1014B200831203132A08B000301C602A612A632AAF
:1014C200F817652A7F30F8053008A0000310200CB9
:1014D200F9002908F9040929080075088312031381
:1014E200A8008030A8057508A0002007AA00F41FF4
:1014F2007B2A7C2A7D2A2A142A080319812A822A15
:10150200922A2A0A031D862A872A8F2A0030F5008A
:101512000030F4000030F3000030F200F417F5015F
:101522009A2A0030F5000030F4000030F300003059
:10153200F2007908A9008030A905290828060319B4
:10154200A32AA42AA52A28177908A0002007A900FF
:10155200F81FAC2AAD2AAE2A291429080319B22A87
:10156200B32AC32A290A031DB72AB82AC02A00307F
:10157200F9000030F8000030F7000030F600F817EC
:10158200F901CB2A0030F9000030F8000030F700F2
:101592000030F6002A0829020318D02AD12AF52A97
:1015A200281FD42AD52AD72A8030A8062A08AB00B9
:1015B2002908AA002B08A9007208AB007608F200DD
:1015C2002B08F6007308AB007708F3002B08F7002E
:1015D2007408AB007808F4002B08F8007508AB001B
:1015E2007908F5002B08F900AB012908A000A10138
:1015F2002108A3002A082002A200031CA303230837
:10160200803AFF0080307F02031D092B1A3022022C
:10161200031C0C2B0D2B422B7508740473047204EB
:10162200031D142B162B0130172B003083120313CA
:10163200AB000030F5000030F4000030F300003061
:10164200F2002908AA004A2B2B1C282B292B302B0D
:101652002B08A0000310200C0138AB00322B031022
:10166200AB0C721C352B362B372BAB170130A0007D
:10167200750DF50CF40CF30CF20CA00B392B0130A8
:10168200AA078312031329082A02031C492B4A2B97
:10169200252B281B4D2B4E2B952B2A08031D522B35
:1016A200532B5C2B0030F5000030F4000030F300C7
:1016B2000030F200BD2C7608F207770803110318F8
:1016C200013E0319652BF307780803110318013E45
:1016D20003196C2BF407790803110318013E03194F
:1016E200732BF507751C762B772B492C2B1C7A2B29
:1016F2007B2B822B2B08A0000310200C0138AB009F
:10170200842B0310AB0C721C872B882B892BAB17F5
:101712000130A000750DF50CF40CF30CF20CA00BCB
:101722008B2B0130AA07492C7508803AFF007908F3
:10173200803A7F02031DA72B78087402031DA72B92
:1017420077087302031DA72B760872020318AA2BCF
:10175200AB2B022CFF30A000FF30A100FF30A20013
:10176200FF30A3007608A4007708A5007808A60039
:101772007908A7007208A4027308031C730FC22B16
:10178200C32BA5027408031C740FC82BC92BA60215
:101792007508031C750FCE2BCF2BA7022408A007B8
:1017A20025080318250FD62BD72BA10726080318C7
:1017B200260FDC2BDD2BA20727080318270AA30715
:1017C2002308F5002208F4002108F3002008F200A3
:1017D2008030A8062B03FF3AAB002B08031DF22B27
:1017E200F32B102C0130F207003003180130F307FD
:1017F200003003180130F407003003180130F507F8
:10180200102C7608F2027708031C770FF30278088F
:10181200031C780FF4027908031C790FF50275088E
:10182200740473047204031D172C182C452C2B0806
:10183200031D1C2C1D2C452C0030F5000030F4003B
:101842000030F3000030F200BD2C0130A000031084
:10185200F20DF30DF40DF50DA00B282CAB1F322C5D
:10186200332C342C72142B1C372C382C3C2C0314A4
:101872002B0DAB003E2C0310AB0D2A080319422C92
:10188200432C452C0130AA02F41F482C492C262C4B
:10189200A901AB1F4D2C4E2C5C2C2B087F39031950
:1018A200532C542C572C0130A9005C2C721C5A2C3E
:1018B2005B2C5C2C542C29080319602C612C932C72
:1018C2000130F207003003180130F307003003182B
:1018D2000130F407003003180130F507751C722C33
:1018E200732C932C7208A0007308A1007408A20044
:1018F2007508A3000130A400230DA30CA20CA10CB7
:10190200A00CA40B7D2C2308F5002208F40021086A
:10191200F3002008F2002A0A0319902C912C932C30
:101922000130AA072A0A0319972C982C9D2C2A0801
:10193200031D9C2C9D2CAB2C0030F5000030F400D4
:101942000030F3000030F2002A08031DA92CAA2C53
:10195200AB2CA8012A1CAE2CAF2CB12CF417B32C43
:101962007F30F4052A08A0000310200CF500A81F00
:10197200BB2CBC2CBD2CF5170800831203132908BD
:10198200B3008030B3052908AE002E07B900A81FA6
:10199200CB2CCC2CCD2C391439080319D12CD22CB8
:1019A200E12C390A031DD62CD72CDF2C0030A900DC
:1019B2000030A8000030A7000030A600A817E92CCC
:1019C2000030A9000030A8000030A7000030A600B7
:1019D2002D088039B3062D08AE002E07B400AC1FC7
:1019E200F32CF42CF52C341434080319F92CFA2CAA
:1019F200092D340A031DFE2CFF2C072D0030AD00EB
:101A02000030AC000030AB000030AA00AC17112D42
:101A12000030AD000030AC000030AB000030AA0056
:101A220034080319152D162D1B2D3908031D1A2DE7
:101A32001B2D242D0030A9000030A8000030A70083
:101A42000030A600FF2F2608F2002C080A168A157D
:101A5200A4250A128A15730883120313BF007208A1
:101A6200BE003E08AE00AF01B001B1013108B800BE
:101A72003008B7002F08B6002E08B5003F08AE00A8
:101A8200AF01B001B1013108BD003008BC002F0820
:101A9200BB002E08BA002708F2002B080A168A1586
:101AA200A4250A128A15730883120313BF00720851
:101AB200BE003E08AE00AF01B001B1012E08B5076D
:101AC2002F0803110318013E0319682DB6073008C9
:101AD20003110318013E03196F2DB70731080311D3
:101AE2000318013E0319762DB8073F08AE00AF0177
:101AF200B001B1012E08BA072F0803110318013EE5
:101B02000319842DBB07300803110318013E031982
:101B12008B2DBC07310803110318013E0319922DC6
:101B2200BD072808F2002A080A168A15A4250A12F7
:101B32008A15730883120313BF007208BE003E08A1
:101B4200AE00AF01B001B1012E08B5072F08031195
:101B52000318013E0319AE2DB6073008031103180E
:101B6200013E0319B52DB707310803110318013ED1
:101B72000319BC2DB8073F08AE00AF01B001B10197
:101B82002E08BA072F0803110318013E0319CA2DA4
:101B9200BB07300803110318013E0319D12DBC07FE
:101BA200310803110318013E0319D82DBD0708306F
:101BB200AE000310B50DB60DB70DB80DAE0BDA2D94
:101BC2002708F2002A080A168A15A4250A128A157D
:101BD200730883120313BF007208BE003E08AE00F2
:101BE2003F08AF00B001B1012E08B5072F0803115D
:101BF2000318013E0319FE2DB6073008031103181E
:101C0200013E0319052EB707310803110318013EDF
:101C120003190C2EB8072608F2002B080A168A159B
:101C2200A4250A128A15730883120313BF007208CF
:101C3200BE003E08AE003F08AF00B001B1012E0861
:101C4200B5072F0803110318013E0319292EB60701
:101C5200300803110318013E0319302EB70731086B
:101C620003110318013E0319372EB8070830AE00DE
:101C72000310B50DB60DB70DB80DAE0B392E2608F3
:101C8200F2002A080A168A15A4250A128A15730870
:101C920083120313BF007208BE003E08AE003F0865
:101CA200AF00B001B1012E08B5072F0803110318C8
:101CB200013E03195D2EB607300803110318013ED9
:101CC2000319642EB707310803110318013E0319E3
:101CD2006B2EB8072708F2002C080A168A15A425CD
:101CE2000A128A15730883120313BF007208BE001A
:101CF2003E08AE003F08AF00B001B1012E08BA079E
:101D02002F0803110318013E0319882EBB07300860
:101D120003110318013E03198F2EBC07310803116A
:101D22000318013E0319962EBD072808F2002B085E
:101D32000A168A15A4250A128A1573088312031338
:101D4200BF007208BE003E08AE003F08AF00B001FF
:101D5200B1012E08BA072F0803110318013E031917
:101D6200B32EBB07300803110318013E0319BA2E24
:101D7200BC07310803110318013E0319C12EBD0728
:101D82002808F2002C080A168A15A4250A128A15B8
:101D9200730883120313BF007208BE003E08AE0030
:101DA2003F08AF00B001B10108300310AE0DAF0D16
:101DB200B00DB10DFF3E031DD62E2E08BA072F0817
:101DC20003110318013E0319E72EBB073008031164
:101DD2000318013E0319EE2EBC0731080311031844
:101DE200013E0319F52EBD073508AE003608AF00D7
:101DF2003708B0003808B10018300310B10CB00C2D
:101E0200AF0CAE0CFF3E031DFE2E2E08BA072F08A4
:101E120003110318013E03190F2FBB0730080311EA
:101E22000318013E0319162FBC07310803110318CA
:101E3200013E03191D2FBD070830AE000310B50D7A
:101E4200B60DB70DB80DAE0B1F2F39083407AE0013
:101E5200AF01AF0D2E08823EBE002F080318013ECF
:101E6200FF3EBF00512F0130AE000310BA0DBB0D73
:101E7200BC0DBD0DAE0B362FB81F402F412F422F88
:101E82003A140130AE000310B50DB60DB70DB80D02
:101E9200AE0B442FFF30BE070318BF0AFF30BF0747
:101EA200BC1F542F552F342FB401B81F592F5A2F4E
:101EB200762FFF303505AE00FF303605AF00FF301C
:101EC2003705B0007F303805B100310830042F04E7
:101ED2002E0403196D2F6E2F712F0130B400762F4F
:101EE2003A1C742F752F762F6E2F340803197A2F10
:101EF2007B2FAC2F0130BA07003003180130BB072B
:101F0200003003180130BC07003003180130BD0750
:101F12003D1C8C2F8D2FAC2F3A08AE003B08AF0032
:101F22003C08B0003D08B1000130B200310DB10CE7
:101F3200B00CAF0CAE0CB20B972F3108BD003008BD
:101F4200BC002F08BB002E08BA000130BE070318E0
:101F5200BF0A0030BF073F08803AFF0080307F028F
:101F6200031DB52FFF303E02031CB82FB92FC42F1B
:101F72007F3083120313BD008030BC000030BB00F1
:101F82000030BA00F52F831203133F08803AFF0096
:101F920080307F02031DCF2F01303E020318D22F63
:101FA200D32FDF2F003083120313BD000030BC009B
:101FB2000030BB000030BA00B301F52F83120313C7
:101FC2003E08B900FF30BA05FF30BB057F30BC05C3
:101FD2000030BD05391CEE2FEF2FF02FBC1739084A
:101FE200AE0003102E0CBD003308BD043D08A9004D
:0E1FF2003C08A8003B08A7003A08A60008001B
:1020020075087404730472040319082809280B283C
:102012008030F5060800D63083120313E1008316E0
:102022000313540883120313E2000130E300E401B6
:10203200E501EB01EC01623083160313D00000309E
:10204200D1005508D2006130D3000A168A15CD2579
:102052000A168A11831203136408831603135407A2
:1020620083120313E00060088400831780010800D4
:102072000030720583120313A00000307305A10023
:1020820080307405A2007F307505A3002308220466
:1020920021042004031D4E284F2857280030F50044
:1020A2000030F4000030F3000030F200003076051A
:1020B200A00000307705A10080307805A2007F30B3
:1020C2007905A3002308220421042004031D6A28A1
:1020D2006B2873280030F9000030F8000030F70058
:1020E2000030F60079087506031D81287808740609
:1020F200031D812877087306031D8128760872065E
:1021020003198428852887280310882803140800C7
:10211200F501F50A01300A168A15B1270A168A1145
:102122001F30F7008030F8000A168A1524270A1695
:102132008A11F501F50A02300A168A15B1270A1624
:102142008A119C3083160313D4002E30D5008316D7
:1021520003171B0883160313D900831603171A08E3
:1021620083160313D8008316031719088316031363
:10217200D70083160317180883160313D6000A160E
:102182008A110C200A168A119C30F7000130F800DF
:102192000A168A1524270A168A114E30831203134F
:1021A200EE00EA30ED00ED0BD428EE0BD42800004F
:1021B20008000A168A15B2240A168A110A168A110A
:1021C200B8220A168A110A128A11F1270A168A11EE
:1021D2000A168A15BB240A168A110A128A150120C8
:1021E2000A168A117B080319F728F82803290A1608
:1021F2008A1182210A168A110A168A155F260A1680
:102202008A11FB017A0803190729082913290A16DA
:102212008A11E8210A168A110A168A15A0260A16B8
:102222008A11FA01831203136F08031919291A2953
:10223200F3280A168A1150220A168A110A168A11DE
:1022420089200A168A1183120313EF01F3280A1256
:102252008A110C2883120313A101A20178088400B9
:102262008313000884000A168A150A200A168A11A6
:102272002A3A031D3D293E296C2978088400013041
:102282008007790884000008FF00023080077F0879
:1022920084000008A100840A0008A2007D29220807
:1022A200F3002108F2000A30F4000030F5000A16AB
:1022B2008A157F250A168A118312031320087207D2
:1022C200A1000030031801307307A20078088400CF
:1022D20001308313800778088400000884000A16FE
:1022E2008A150A200A168A11D03EA0000A3020025E
:1022F200031C7C297D2950292208F9002108F800B5
:102302000800831203130814093083120313C00058
:10231200C00B8929831203130810881C9129922962
:102322008E2910148E018F018818982999299529D0
:1023320010100E0883160313DA00831203130F081A
:1023420083160313DB00DC01DD013D30831203132E
:10235200A9004430A8009B30A700A630A60083162F
:1023620003135D08F5005C08F4005B08F3005A08EB
:10237200F20000300A128A113B270A168A117508E8
:1023820083120313AD007408AC007308AB0072082B
:10239200AA000A128A15BE240A168A11831203138E
:1023A200290883160313E5008312031328088316F2
:1023B2000313E40083120313270883160313E300B5
:1023C20083120313260883160313E2000800831204
:1023D20003138E018F010815093083120313C00005
:1023E200C00BF129831203130811881DF929FA2958
:1023F200F62910148E018F018819002A012AFD295D
:1024020010100E0883160313DA00831203130F0849
:1024120083160313DB00DC01DD013D30831203135D
:10242200A9004430A8009B30A700A630A60083165E
:1024320003135D08F5005C08F4005B08F3005A081A
:10244200F20000300A128A113B270A168A11750817
:1024520083120313AD007408AC007308AB0072085A
:10246200AA000A128A15BE240A168A1183120313BD
:10247200290883160313E100831203132808831625
:102482000313E00083120313270883160313DF00EC
:1024920083120313260883160313DE000800831237
:1024A20003138E018F010816093083120313C00033
:1024B200C00B592A831203130812881E612A622A4A
:1024C2005E2A10148E018F01881A682A692A652AE9
:1024D20010100E0883160313DA00831203130F0879
:1024E20083160313DB00DC01DD013D30831203138D
:1024F200A9004430A8009B30A700A630A60083168E
:1025020003135D08F5005C08F4005B08F3005A0849
:10251200F20000300A128A113B270A168A11750846
:1025220083120313AD007408AC007308AB00720889
:10253200AA000A128A15BE240A168A1183120313EC
:102542002908831603179B00831203132808831696
:1025520003179A008312031327088316031799009F
:1025620083120313260883160317980008008316A4
:10257200031386018612061200300A168A153925BF
:102582000A168A117530F600E130F500F50BC72AFC
:10259200F60BC72AD630F500CE2ACF2AF50BCD2A64
:1025A200000003300A168A15F9240A168A1114301B
:1025B200F6007930F500F50BDC2AF60BDC2AE12A6D
:1025C20003300A168A15F9240A168A119530F50085
:1025D200F50BE92AEC2A03300A168A15F9240A16A1
:1025E2008A1102300A168A15F9240A168A11023053
:1025F2000A168A15F9240A168A1108300A168A154B
:10260200F9240A168A1100300A168A15F9240A16C4
:102612008A1101300A168A15F9240A168A11003025
:102622000A168A15F9240A168A110C300A168A1516
:10263200F9240A168A1100300A168A15F9240A1694
:102642008A1106300A168A15F9240A168A11080018
:102652000310740D750D83120313A1002108031DCD
:10266200332B342B3D2B0030F5000030F4000030CA
:10267200F3000030F2009E2B7208F6007308F70098
:102682007408F8007508F9001F300310F90CF80CF3
:10269200F70CF60CFF3E031D462B7608A000F4173C
:1026A200FF30F205FF30F305FF30F4050030F50589
:1026B2009630A102A11F5E2B5F2B772B2108803A57
:1026C200973E0318652B662B672B342B01300310C2
:1026D200F50CF40CF30CF20CFF3E031D682B0130D9
:1026E200A107031D752B762B672B8E2B2030210221
:1026F200031C7C2B7D2B892B342B0130F60003101D
:10270200F20DF30DF40DF50DF60B802B0130A10245
:102712002108031D8D2B8E2B7E2B20080319922B53
:10272200932B9E2BF209F309F409F509F20A031916
:10273200F30A0319F40A0319F50A08007408750468
:102742000319A42BA52BAB2B74087504031DAA2B0C
:10275200AB2BB22B72080A128A11FE270A168A11B3
:102762003E2C7408093E83120313A0007508031857
:10277200013E003EA100200884008317211C831320
:102782000008A200840A0008A300220823040319F7
:10279200CB2BCC2BFE2B7408093EA0007508031826
:1027A200013E003EA100200884008317211C8313F0
:1027B2000008A200840A0008A3007408023EA400D4
:1027C20075080318013E003EA50024088400831703
:1027D200251C83130008A600840A0008A700270806
:1027E200803AA8002308803A2802031DFA2B220807
:1027F20026020318FD2BFE2B3E2C7408840083173F
:10280200751C8313000883120313A000840A0008B6
:10281200A1007408023EA20075080318013E003EA2
:10282200A300220884008317231C831300082007B7
:10283200A5002108A4000318A40A801F212CA403C8
:10284200831203132408A600250884008317261C7C
:102852008313720880007408023EA00075080318F2
:10286200013E003EA100200884008317211C83132F
:1028720001308007840A0318800A0800003083129E
:1028820003134005C80000304105C90080304205ED
:10289200CA007F304305CB004B084A044904480470
:1028A200031D542C552C5D2C0030C3000030C20097
:1028B2000030C1000030C00000304405C8000030C4
:1028C2004505C90080304605CA007F304705CB0068
:1028D2004B084A0449044804031D702C712C792CBE
:1028E2000030C7000030C6000030C5000030C40010
:1028F200C31F7C2C7D2CA12C0030C8000030C900E5
:102902000030CA008030CB004008C8024108031CD6
:10291200410F8C2C8D2CC9024208031C420F922CB1
:10292200932CCA024308031C430F982C992CCB0208
:102932004B08C3004A08C2004908C1004808C00049
:10294200C71FA42CA52CC92C0030C8000030C90018
:102952000030CA008030CB004408C8024508031C7E
:10296200450FB42CB52CC9024608031C460FBA2CDD
:10297200BB2CCA024708031C470FC02CC12CCB0238
:102982004B08C7004A08C6004908C5004808C400E9
:102992008030C3068030C70647084302031DDB2C84
:1029A20046084202031DDB2C45084102031DDB2CB5
:1029B200440840020318DE2CDF2CE12C0310E22C29
:1029C20003140800831603134E08840083130008BF
:1029D20084000A168A150A200A168A11253A031D4E
:1029E200F32CF42CC82D4E08840001308007E60138
:1029F200E7010030EC00FF30E800FF30E9004E084C
:102A02008400000884000A168A150A200A168A1110
:102A12002E3A031D0D2D0E2D212D4E08840001305E
:102A220080074E08F8004F08F9000A168A112B2178
:102A32000A168A11790883160313E9007808E80058
:102A42004E0884008313000883120313DE005E081D
:102A520084000A168A150A200A168A11DD00392D09
:102A62000130DE07442D6C30DD00442DDD01442DA4
:102A72005D084C3A0319312D2A3A0319342D0A3ACA
:102A82000319312D372D5E0884000A168A150A2093
:102A92000A168A11663A031D4F2D502DC02D812D25
:102AA200831603134F0884000008FF0004308007D8
:102AB2007F088400000883120313D900840A0008E7
:102AC200DA00840A0008DB00840A0008DC00892D91
:102AD200831603134F0884000008FF0004308007A8
:102AE2007F088400000883120313D900840A0008B7
:102AF200DA00840A0008DB00840A0008DC00892D61
:102B02005D084C3A0319692D203A0319512D892D7C
:102B1200831603134E088400831203135E08013EDA
:102B22008000B52D831603134C0883120313CC00C7
:102B3200831603134D0883120313CD005C08D100E2
:102B42005B08D0005A08CF005908CE005E08840006
:102B52000A168A150A200A168A11D2000A168A1142
:102B6200E6250A168A11E52D5E0884000A168A15E2
:102B72000A200A168A11663A0319932DC02D83166C
:102B820003134E088400013083138007E52D4E089D
:102B92008400000884000A168A150A200A168A117F
:102BA20083120313D700D8015708F2005808F30024
:102BB200831603134C08F4004D08F5000A168A1117
:102BC2009F230A168A11C02D080083160313C10120
:102BD20083120313510883160313C50083120313D0
:102BE200500883160313C400831203134F0883167D
:102BF2000313C300831203134E0883160313C20088
:102C0200450883120313C300831603134408831277
:102C12000313C20083160313430883120313C10074
:102C220083160313420883120313C0000030C70047
:102C32000030C6000030C5000030C4000A168A11F8
:102C42003F240A168A110318272E282E432E0130FC
:102C520083160313C1004508F5004408F400430835
:102C6200F3004208F2000A168A1101200A168A119C
:102C7200750883160313C5007408C4007308C300E3
:102C82007208C20083160313C601C7016708B200A7
:102C92006608B100410803194F2E502E602E4108DC
:102CA200031D542E552E5A2E2B30A6000030A7009D
:102CB2005E2E2D30A6000030A7002608C100450870
:102CC200F5004408F4004308F3004208F2000A1237
:102CD2008A1511200A168A1172037304031D722EBB
:102CE200732EB82E8316031341080319792E7A2EF8
:102CF2008A2E4108831203179000FF3083160313B4
:102D0200B1070318B20AFF30B2070130C600003023
:102D1200C7004608103EF2003830F3000A168A1542
:102D2200E0240A168A11FD3083160313B107031833
:102D3200B20AFF30B207831203134C08AE004D08EB
:102D4200AF001030B000831603133208831203134E
:102D5200B20083160313310883120313B1000A165B
:102D62008A1521260A168A110A128A113A2F831607
:102D720003134508F5004408F4004308F300420831
:102D8200F2000A128A1511200A168A1172087304B7
:102D9200031DCC2ECF2E0A128A113228831603135A
:102DA20041080319D52ED62EE62E410883120317A9
:102DB2009000FF3083160313B1070318B20AFF30E5
:102DC200B2070130C6000030C7004608103EF200CC
:102DD2003C30F3000A168A15E0240A168A11942E52
:102DE20083160317130883120313C50083160317F0
:102DF200120883120313C4008316031711088312E7
:102E02000313C30083160317100883120313C200AF
:102E12003508C5003408C4003308C3003208C200B4
:102E22004208B6004308B7004408B8004508B90094
:102E320017300310B90CB80CB70CB60CFF3E031DCB
:102E42001A2FFF303605BA0000303705BB003A08AA
:102E5200813EC0003B080318013EFF3EC10041080D
:102E6200803AFF0080307F02031D392F1730400265
:102E7200031C3C2F3D2F3E2FFF2F83120313C11B38
:102E8200432F442FB42F400AFF00FF30B600FF301B
:102E9200B7007F30B8000030B900542F390DB90C9B
:102EA200B80CB70CB60CFF0B4F2F3908BF0038080F
:102EB200BE003708BD003608BC003C084205B6001B
:102EC2003D084305B7003E084405B8003F084505E4
:102ED200B9003908380437043604031D712F722FE4
:102EE200732F3D2F4208B6004308B7004408B800CC
:102EF2004508B9001F300310B90CB80CB70CB60C5A
:102F0200FF3E031D7C2F39083804370436040319A9
:102F12008B2F8C2FA32F3C08C2073D0803110318E7
:102F2200013E0319952FC3073E0803110318013E02
:102F320003199C2FC4073F0803110318013E03190C
:102F4200A32FC5073C09B6003D09B7003E09B800EA
:102F52003F09B9003608C2053708C3053808C40559
:102F62003908C505F72F4208B6004308B7004408E0
:102F7200B8004508B9001F300310B90CB80CB70CE3
:102F8200B60CFF3E031DBD2F390838043704360442
:102F9200031DCC2FCD2FD62F0030C5000030C4002A
:102FA2000030C3000030C200F72F4208B6004308C9
:102FB200B7004408B8004508B90001300310B60D47
:102FC200B70DB80DB90DFF3E031DDF2F39083804C8
:102FD200370436040319EE2FEF2FF72FBF30C50049
:102FE2008030C4000030C3000030C2004508B50084
:102FF2004408B4004308B3004208B2000800FF1BB3
:103002000A2883137F1883170008840A0319FF0A0A
:10301200080018308A000408840A82070034443405
:1030220069347334743461346E34633465342034F7
:1030320031342034693473343A34003444346934DA
:103042007334743461346E3463346534203432340E
:103052002034693473343A34003444346934733478
:10306200743461346E346334653420343334203440
:10307200693473343A34003425342E3433346634AC
:1030820020345B3463346D345D34003469346E341F
:0C309200663400346E3461346E34003457
:1039540064008001840A0406031900340406AB2CB5
:103964008316031308100811081288148815881682
:103974000800831203138E018F0190101016901605
:10398400831603130C14831203130C100B178B17D9
:103994000800F51BCE2CCF2CD02CDF2C7209F200A2
:1039A4007309F3007409F4007509F500F20A0319A8
:1039B400F30A0319F40A0319F50A08007208F4005B
:1039C4000130F307FF30730784000A168A150A20B2
:1039D4000A168A15FF007408F40A84007F08831706
:1039E40080000008031DF72CF82CE22C0800F400DA
:1039F40083120313861274080A168A1539250A16C7
:103A04008A15831203130616D630F300092D0A2DE6
:103A1400F30B082D0000831203130612D630F300B3
:103A2400132D142DF30B122D000008007308F80059
:103A34007208F7002A2D7808840083170008F6001E
:103A44000130F80777088400760880000130F70712
:103A54000130F4020030031CF503F502740A031D5F
:103A6400372D750A031D372D382D1D2D0800F20042
:103A7400721C3D2D3E2D422D831203130614452D39
:103A8400831203130610F21C482D492D4B2D861466
:103A94004C2D8610721D4F2D502D522D0615532D71
:103AA4000611F21D562D572D592D86155A2D8611A6
:103AB4000800803083120313C3064708F500460844
:103AC400F4004508F3004408F2004308F9004208F2
:103AD400F8004108F7004008F6000A128A156E2221
:103AE4000A168A15750883120313C3007408C200EA
:103AF4007308C1007208C0000800F601F701721CC7
:103B0400842D852D8B2D7408F6070318F70A750884
:103B1400F70701300310F40DF50DFF3E031D8C2D46
:103B240001300310F30CF20CFF3E031D932D7208B9
:103B34007304031D9E2D9F2D812D7708F3007608B5
:103B4400F200080083120313A400A001A10172086B
:103B5400F400F5017408A2007508A300241CB32D19
:103B6400B42DBA2D2208A0070318A10A2308A1071F
:103B740001300310A20DA30DFF3E031DBB2D031046
:103B8400A40C2408031DC72DC82DB02D2108F30053
:103B94002008F2000800831603135208831203134B
:103BA400DF00E32D831603135008CC005108CD0029
:103BB4005F30CE005308CF000A168A11E3240A1698
:103BC4008A15831203135F0884000A168A150A20D3
:103BD4000A168A15003A031DF02DF12DD42D8316F3
:103BE4000313D001D101080083120313AC01AD010A
:103BF400132E2B08A900AA012908F2002A08F300B1
:103C04007708F4007808F5000A168A119F230A162B
:103C14008A15013083120313AC070318AD0A003070
:103C2400AD072C087607A90029088400831700082B
:103C3400AB002B08031D1F2E202EFB2D0800831222
:103C44000313B21F262E272E292EB101B201B30170
:103C5400B401432E2030F2000030F300831203132A
:103C64002E08F4002F08F5000A168A119F230A165D
:103C74008A15013083120313B3070318B40A003002
:103C8400B4073408803AF9003208803A7902031DF7
:103C94004D2E31083302031C502E512E2C2E83122C
:103CA40003133008F6002E08F7002F08F8000A1650
:103CB4008A15F6250A168A150800F501F50A013059
:103CC4000A168A15B1270A168A150130F7008030C2
:103CD400F8000A168A1524270A168A15F501F50A2A
:103CE40002300A168A15B1270A168A159C308316E3
:103CF4000313D4002E30D5006508D9006408D80019
:103D04006308D7006208D6000A168A110C200A1626
:103D14008A159C30F7000130F8000A168A1524270A
:103D24000A168A154E3083120313EE00EA30ED00B2
:103D3400ED0B9A2EEE0B9A2E00000800F501F50A01
:103D440001300A168A15B1270A168A151030F700B1
:103D54008030F8000A168A1524270A168A15F501F8
:103D6400F50A02300A168A15B1270A168A159C30FC
:103D740083160313D4002E30D5006108D9006008DF
:103D8400D8005F08D7005E08D6000A168A110C20F6
:103D94000A168A159C30F7000130F8000A168A15B5
:103DA40024270A168A154E3083120313EE00EA30D4
:103DB400ED00ED0BDB2EEE0BDB2E00000800831272
:103DC40003138C1CE62EE72E1D2F013083160313DC
:103DD400EA070318EB0A0030EB07E8306A06033001
:103DE40003196B06031DF72EF82EFB2E0130FB0082
:103DF400182FD0306A06073003196B06031D032FF2
:103E0400042F072F0130FA00182FB8306A060B3040
:103E140003196B06031D0F2F102F182F0130831267
:103E24000313EF0083160313EA01EB0144308312FA
:103E3400031391008C1071088A00700E8300FE0E2B
:103E44007E0E090083120313A301A4014D2F23083E
:103E54007707A1007808A0000318A00AA31F332F36
:103E6400A003831203132008A2002208FF002108E4
:103E740084000A168A1500200A168A150A168A155D
:103E84006A270A168A15013083120313A30703183D
:103E9400A40A0030A40723087707A1007808A0002B
:103EA4000318A00AA31F572FA0038312031320088B
:103EB400A2002208FF00210884000A168A150020A7
:103EC4000A168A15003A031D682F692F292F080046
:103ED400F6007608F30004300310F30CFF3E031DD4
:103EE4006E2F7308F4007608F5000F30F505831281
:103EF4000313861674080A168A1539250A168A15B4
:103F0400831203130616D630F300882F892FF30B80
:103F1400872F0000831203130612D630F300922F6A
:103F2400932FF30B912F000075080A168A15392573
:103F34000A168A15831203130616D630F300A22F2D
:103F4400A32FF30BA12F0000831203130612D63004
:103F5400F300AC2FAD2FF30BAB2F0000080083123E
:103F64000313A0002003031DB82FB92FD82F750801
:103F74007F3EA3002308F60004300310F60CFF3E36
:103F8400031DBF2F7608A1002308A2000F30A2054D
:103F940021080A168A15F9240A168A1583120313AE
:103FA40022080A168A15F9240A168A150230831281
:103FB40003132006031DDF2FE02FFF2F7508BF3EDC
:103FC400A3002308F60004300310F60CFF3E031D83
:103FD400E62F7608A1002308A2000F30A2052108CD
:103FE4000A168A15F9240A168A158312031322085D
:0C3FF4000A168A15F9240A168A1508001E
:02400E00723FFF
:00000001FF
