:100000000A128A11FC2F00308A000408840A820731
:100010000034443469346E3468345434693465349B
:100020006E340034483443344D3455345434003441
:100C9E0000300A128A117E260A128A1101300A12B7
:100CAE008A117E260A128A110800F000701C602E2E
:100CBE00612E652E831203130614682E83120313FE
:100CCE000610F01C6B2E6C2E6E2E86146F2E861058
:100CDE00701D722E732E752E0615762E0611F01DB2
:100CEE00792E7A2E7C2E86157D2E86110800F30025
:100CFE0083120313861273080A128A115C260A12D3
:100D0E008A118312031306160430F2003D30F100EF
:100D1E00F10B8F2EF20B8F2E942E831203130612CD
:100D2E000430F2003D30F100F10B9B2EF20B9B2EA6
:100D3E00A02E0800F701F801B72E77087607840079
:100D4E000A128A1103200A128A110A128A113827EE
:100D5E000A128A110130F7070318F80A0030F80753
:100D6E007708760784000A128A1103200A128A1164
:100D7E00003A031DC32EC42EA42E08000A128A1197
:100D8E0089270A128A110A128A114F260A128A110B
:100D9E000530F40001300A128A11F1260A128A1166
:100DAE000130F6000A128A11A1260A128A110730A2
:100DBE00F40002300A128A11F1260A128A110A3040
:100DCE00F6000A128A11A1260A128A11ED2E0A12B3
:100DDE008A110028F6007603031DF62EF72E142F27
:100DEE0074087F3EF9007908F50004300310F50C05
:100DFE00FF3E031DFD2E7508F7007908F8000F3031
:100E0E00F80577080A128A117E260A128A117808C6
:100E1E000A128A117E260A128A1102307606031DE4
:100E2E00192F1A2F372F7408BF3EF9007908F500D5
:100E3E0004300310F50CFF3E031D202F7508F7003C
:100E4E007908F8000F30F80577080A128A117E2605
:100E5E000A128A1178080A128A117E260A128A113B
:100E6E000800F5007508F3000F30F3057508F4005F
:100E7E00F030F4058312031386167408F100043063
:100E8E000310F10CFF3E031D472F71080A128A1141
:100E9E005C260A128A118312031306160430F2001E
:100EAE003D30F100F10B592FF20B592F5E2F8312AB
:100EBE00031306120430F2003D30F100F10B652FE2
:100ECE00F20B652F6A2F73080A128A115C260A121A
:100EDE008A118312031306160430F2003D30F1001E
:100EEE00F10B772FF20B772F7C2F83120313061241
:100EFE000430F2003D30F100F10B832FF20B832F03
:100F0E00882F0800831603138601861206120030FE
:100F1E000A128A115C260A128A11C330F500CD30EE
:100F2E00F400F40B982FF50B982F0430F5003D309C
:100F3E00F400F40BA02FF50BA02FA52F03300A12EF
:100F4E008A117E260A128A112130F5007630F400BD
:100F5E00F40BAF2FF50BAF2F000003300A128A11DE
:100F6E007E260A128A11F930F400F40BBC2FBF2F23
:100F7E0003300A128A117E260A128A1102300A12D0
:100F8E008A117E260A128A1102300A128A117E26D0
:100F9E000A128A1108300A128A117E260A128A1142
:100FAE0000300A128A117E260A128A110C300A1299
:100FBE008A117E260A128A1100300A128A117E26A2
:100FCE000A128A1101300A128A117E260A128A1119
:100FDE0000300A128A117E260A128A1106300A126F
:100FEE008A117E260A128A11080083010A128A11BA
:020FFE00C52EFE
:02400E00723D01
:00000001FF
