:060000000A128A11FC2F18
:100F56008316031306108610061183120313061454
:100F66004130F100EE30F000F00BB72FF10BB72F48
:100F760000008312031306104130F100EE30F0003A
:100F8600F00BC32FF10BC32F00008312031386143B
:100F96004130F100EE30F000F00BCF2FF10BCF2FE8
:100FA60000008312031386104130F100EE30F0008A
:100FB600F00BDB2FF10BDB2F00008312031306155A
:100FC6004130F100EE30F000F00BE72FF10BE72F88
:100FD60000008312031306114130F100EE30F000D9
:100FE600F00BF32FF10BF32F0000B02F0A128A112A
:0A0FF600002883010A128A11AB2FB4
:02400E00F33F7E
:00000001FF
