:060000000A128A110C280F
:10000800FE00030EF0000A08F1000A128A111428F3
:100018000A128A110F28F20183010A128A1138285C
:10002800831203130C1D19281A2831280130F207EE
:100038000A307206031D2128222830280310071EC3
:100048000314031828282C288312031307162F28B3
:10005800831203130712F2010C1171088A00700E43
:100068008300FE0E7E0E09000A128A115C200A1215
:100078008A110A128A1163200A128A110A128A1135
:100088004B200A128A1147280A128A110C28C330F9
:10009800831203139600503095000B309700831697
:1000A80003130C15831203130C110B178B1708007D
:1000B8008316031307128312031307120800013073
:0800C8008312031390000800ED
:02400E00723FFF
:00000001FF
