:060000000A128A11FC2F18
:100F32000730831603138600880183120313880186
:100F42000800F00083160313981CA82FA92FA32FC3
:100F520070088312031399000800193083160313D3
:100F62009900181518128312031398178316031386
:100F720007178717981608000A128A1199270A126A
:100F82008A110A128A11AE270A128A11F3018312F8
:100F92000313061CCD2FCE2FD82F0130F307C330F9
:100FA200F200CD30F100F10BD42FF20BD42F8312CB
:100FB2000313861CDD2FDE2FE82F0130F302C3302E
:100FC200F200CD30F100F10BE42FF20BE42F83128B
:100FD2000313061DED2FEE2FF42F73080A128A1148
:100FE200A2270A128A117308831203138800C82FDA
:0E0FF2000A128A11002883010A128A11BD2FEB
:02400E00723FFF
:00000001FF
