:100000000A128A11FC2F00308A000408840A820731
:100010000034443449344E3448345434493445343B
:100020004E340034483443344D3455345434003461
:100BC40000300A128A114A260A128A1101300A12C6
:100BD4008A114A260A128A11080001300A128A115F
:100BE4004A260A128A1108300A128A114A260A125F
:100BF4008A11080001300A128A114A260A128A113F
:100C04000C300A128A114A260A128A110800F701C6
:100C14001A2E7708760784000A128A1103200A1212
:100C24008A110A128A11B5260A128A110130F707AD
:100C34007708760784000A128A1103200A128A119F
:100C4400003A031D262E272E0B2E0800F000701CE0
:100C54002C2E2D2E312E831203130614342E8312C0
:100C640003130610F01C372E382E3A2E86143B2E12
:100C74008610701D3E2E3F2E412E0615422E061163
:100C8400F01D452E462E482E8615492E8611080045
:100C9400F30083120313061273080A128A1128261A
:100CA4000A128A118312031386160430F2003D30AF
:100CB400F100F10B5B2EF20B5B2E602E83120313FB
:100CC40086120430F2003D30F100F10B672EF20B76
:100CD400672E6C2E0800F6007603031D722E732E09
:100CE400912E74087F3EF9007908F5000430031052
:100CF400F50CFF3E031D792E7508F7007908F800FE
:100D04000F30F80577080A128A114A260A128A1146
:100D140078080A128A114A260A128A11B42E02305D
:100D24007606031D962E972EB42E7408BF3EF90046
:100D34007908F50004300310F50CFF3E031D9D2EC9
:100D44007508F7007908F8000F30F80577080A12DB
:100D54008A114A260A128A1178080A128A114A2626
:100D64000A128A110800F5007508F1000430031016
:100D7400F10CFF3E031DB92E7108F3007508F40051
:100D84000F30F40583120313061673080A128A112E
:100D940028260A128A118312031386160430F200DD
:100DA4003D30F100F10BD42EF20BD42ED92E831248
:100DB400031386120430F2003D30F100F10BE02EF3
:100DC400F20BE02EE52E83120313061674080A12A2
:100DD4008A1128260A128A118312031386160430F4
:100DE400F2003D30F100F10BF52EF20BF52EFA2E48
:100DF4008312031386120430F2003D30F100F10B2C
:100E0400012FF20B012F062F08008316031386010E
:100E14000612861200300A128A1128260A128A1132
:100E2400C330F500CD30F400F40B162FF50B162F5C
:100E34000430F5003D30F400F40B1E2FF50B1E2F8B
:100E4400232F03300A128A114A260A128A112130EA
:100E5400F5007630F400F40B2D2FF50B2D2F000048
:100E640003300A128A114A260A128A11F930F40050
:100E7400F40B3A2F3D2F03300A128A114A260A1224
:100E84008A1102300A128A114A260A128A11023081
:100E94000A128A114A260A128A1108300A128A1181
:100EA4004A260A128A1100300A128A114A260A12A4
:100EB4008A110C300A128A114A260A128A11003049
:100EC4000A128A114A260A128A1101300A128A1158
:100ED4004A260A128A1100300A128A114A260A1274
:100EE4008A1106300A128A114A260A128A11080047
:100EF4000A128A1107270A128A110A128A11E22594
:100F04000A128A11F401F40A01300A128A116D26B8
:100F14000A128A110130F6000A128A1109260A12ED
:100F24008A110330F40002300A128A116D260A1263
:100F34008A110A30F6000A128A1109260A128A1145
:100F440083120313A001A1010830FC009D30FB00B3
:100F54000530FA00FA0BAC2FFB0BAC2FFC0BAC2FBB
:100F6400B32F0A128A11FC250A128A110130831246
:100F74000313A0070318A10A0030A1072108803A2F
:100F8400FF0080307F02031DC92F08302002031C9C
:100F9400CC2FCD2FA62F83120313A201A301083057
:100FA400FC009D30FB000530FA00FA0BD72FFB0B39
:100FB400D72FFC0BD72FDE2F0A128A11EF250A1226
:100FC4008A11013083120313A2070318A30A003005
:100FD400A3072308803AFF0080307F02031DF42F0B
:100FE40008302202031CF72FF82FD12FA22F0A1248
:0C0FF4008A11002883010A128A117A2F4A
:02400E00723FFF
:00000001FF
