:060000000A128A11FC2F18
:100F140083160313071487148601831203138601AF
:100F2400F3010230F200BD2F0130F2000130F00075
:100F3400730A9E2F0310F00DFF3E031D9C2F7008B3
:100F440086000130F3074130F100EE30F000F00B81
:100F5400A92FF10BA92F000004307306031DB32F32
:100F6400B42FB52FF30183120313871CBA2FBB2FA1
:100F7400BD2FF201F02F0718C02FC12F962F720337
:100F84000319C52FC62F962FF02F730AFF000830C0
:100F9400F0000030F100D12F710DF10CF00CFF0BBB
:100FA400CE2F70088312031386000130F3074130FB
:100FB400F100EE30F000F00BDD2FF10BDD2F00001F
:100FC40004307306031DE72FE82FE92FF301831282
:100FD4000313071CEE2FEF2FF02FF92F8718F32F91
:100FE400F42FC72F72080319F82FF92FC72F0A12ED
:0C0FF4008A11002883010A128A118A2F3A
:02400E00713F00
:00000001FF
