:060000000A128A110C280F
:10000800FE00030EF0000A08F1000A128A112A28DD
:100018000A128A110F2883010A128A1113280A1258
:100028008A1147200A128A110A128A1151200A12CB
:100038008A110A128A113A200A128A1183120313AA
:100048000E08880022280A128A110C28831203132A
:100058000C1D2F2830283328150886000C1171082C
:100068008A00700E8300FE0E7E0E09000530831292
:1000780003139700831603130C15831203130C1133
:100088000B178B17080083160313071586018801C1
:1000980083120313860188010800831203138E015B
:0800A8008F010B3090000800ED
:02400E00723FFF
:00000001FF
