:060000000A128A11EE2F26
:100F1400FC346034DA34F2346634B634BE34E0344B
:100F2400FE34F6347E088A007F0882000A128A1191
:100F340094270A128A118000840A04087D06031982
:100F44000034FF0A0319FE0A982F83120313AA011F
:100F5400AB018316031386018312031386012C301D
:100F640084002030F0000A30F10083130008F200FE
:100F7400040AF3007008840072088000040AF00078
:100F840073088400F10BB72F831203132A08203E41
:100F940084008313000886000130AA070318AB0AF3
:100FA4000030AB070A302A062B04031DDA2FDB2F8F
:100FB400DD2FAA01AB010630F2001330F100AD3091
:100FC400F000F00BE32FF10BE32FF20BE32FEA2FEA
:100FD400C62F0A128A11002883133630FD00073009
:100FE400FE008A30FF002C3084000A128A119827F0
:0C0FF4000A128A1183010A128A11A72F29
:02400E00F13F80
:00000001FF
